01REMESSA01FIDC           934828312309        TESTE COMERCIO DE FERTILIZANTES403BANCO PECHINCHA110425                                                                                                                                                                                                                                                                                                     000001
10259896740902611934828312309        0000000000000000000000000212153310000088011939101                     102700105870202042600000880119390941111101A230725000020500                                                     0210161543989663PlanaltoAgroEnergia Solucoes R          Rua Brasil 1539                         Centro      90276030Aparecida de GoGO                                  020526   000002
10259896740902611934828312309        0000000000000000000000000291223910000072014107101                     102700094749008122500000720141070941111101A070725000020500                                                     0225385033347321AgroGrowthVerde Agropecuaria S          Avenida Joao Pessoa 760                 Parque Indus92605340Sorocaba       SP                                  070126   000003
10259896740902611934828312309        0000000000000000000000000462730610000066924760101                     102700109963630102500000669247600941111101A110725000020500                                                     0219075432891605AgriAgri Gestao Rural S.A.              Praca das Palmeiras 750                 Vila Santa  19073731Pelotas        RS                                  291125   000004
10259896740902611934828312309        0000000000000000000000000127655810000043805764101                     102700167091818062600000438057640941111101A030925000020500                                                     0200074218309280AgriNovaAgroDynamic Exportacao          Rua dos Pinheiros 1458                  Jardim Plana98141183Corumba        MS                                  180726   000005
10259896740902611934828312309        0000000000000000000000000725073510000040600454101                     102700084690606022700000406004540941111101A230825000020500                                                     0281536337073518AgroMasterAgroBio Empreendimen          Travessa das Flores 492                 Parque Indus75922865Sinop          MT                                  080327   000006
10259896740902611934828312309        0000000000000000000000000366974110000038843290101                     102700041965219112600000388432900941111101A080725000020500                                                     0212430376268462AgrolabTerra Agronegocios Ltda          Rua Brasil 1624                         Parque Indus76386585Canoas         RS                                  191226   000007
10259896740902611934828312309        0000000000000000000000000366833910000015644326101                     102700087128708102600000156443260941111101A240725000020500                                                     0100029891154879Thiago Rocha                            Rua das Flores 671                      Vila Santa  59027009Curitiba       PR                                  071126   000008
10259896740902611934828312309        0000000000000000000000000728838610000074178560101                     102700069857411012600000741785600941111101A280725000020500                                                     0228972111036896AgroesteAgri Empreendimentos R          Travessa 21 de Abril 1582               Boa Vista   86209111Sao Paulo      SP                                  100226   000009
10259896740902611934828312309        0000000000000000000000000605692710000045574197101                     102700075058605122500000455741970941111101A030725000020500                                                     0100057000944581Ana Freitas                             Avenida das Flores 1801                 Jardim Plana17179892Tres Lagoas    MS                                  040126   000010
10259896740902611934828312309        0000000000000000000000000238763810000067177098101                     102700173843116102500000671770980941111101A180825000020500                                                     0254379517555811AgroTransAgrolab Agropecuaria           Rua dos Pinheiros 1632                  Vila Santa  72295273Canoas         RS                                  151125   000011
10259896740902611934828312309        0000000000000000000000000466288710000052436737101                     102700015571014072600000524367370941111101A230725000020500                                                     0201061724348829BioAgrosul Comercio de Graos L          Avenida 7 de Setembro 1447              Parque Indus31088495Sorocaba       SP                                  130826   000012
10259896740902611934828312309        0000000000000000000000000699830210000088571562101                     102700007298218122600000885715620941111101A080925000020500                                                     0100033510296761Julia Monteiro                          Praca das Flores 631                    Parque Indus75905814Anapolis       GO                                  170127   000013
10259896740902611934828312309        0000000000000000000000000415691710000055558022101                     102700113677523012700000555580220941111101A020925000020500                                                     0257212271944220AgroPrimeHorizonte Agronegocio          Avenida 21 de Abril 969                 Jardim Plana58110358Corumba        MS                                  220227   000014
10259896740902611934828312309        0000000000000000000000000948104510000086038004101                     102700064177129122600000860380040941111101A260825000020500                                                     0220773525278038AgroSmartAgrosul Cultivo e Com          Alameda dos Pinheiros 1658              Jardim Ameri89706224Campo Grande   MS                                  280127   000015
10259896740902611934828312309        0000000000000000000000000722519510000015786685101                     102700057356417122500000157866850941111101A170925000020500                                                     0275551725010984FazendaAgrolab Agroindustrial           Alameda 4 de Julho 1504                 Jardim Ameri92902539Londrina       PR                                  160126   000016
10259896740902611934828312309        0000000000000000000000000390432110000035773082101                     102700077649429122500000357730820941111101A070925000020500                                                     0246936450792192FazendaAgroViva Servicos Agric          Avenida Brasil 1000                     Jardim Plana96635097Sorocaba       SP                                  280126   000017
10259896740902611934828312309        0000000000000000000000000417340310000085996779101                     102700020606815122500000859967790941111101A090825000020500                                                     0100029891154879Thiago Rocha                            Rua das Flores 671                      Vila Santa  59027009Curitiba       PR                                  140126   000018
10259896740902611934828312309        0000000000000000000000000941135610000097210640101                     102700191603422072600000972106400941111101A100925000020500                                                     0100029891154879Thiago Rocha                            Rua das Flores 671                      Vila Santa  59027009Curitiba       PR                                  210826   000019
10259896740902611934828312309        0000000000000000000000000272065710000069046832101                     102700148116722072600000690468320941111101A120725000020500                                                     0100029891154879Thiago Rocha                            Rua das Flores 671                      Vila Santa  59027009Curitiba       PR                                  210826   000020
10259896740902611934828312309        0000000000000000000000000161695910000120004998101                     102700060559424072600001200049980941111101A170925000020500                                                     0288926817645087TerraAgroGlobal Producao Agric          Rua das Palmeiras 1041                  Jardim Plana61149330Campo Grande   MS                                  230826   000021
10259896740902611934828312309        0000000000000000000000000621011210000017567403101                     102700149253321092600000175674030941111101A270825000020500                                                     0225999586620524AgroEnergiaCampo Producao Agri          Praca Ipiranga 1267                     Vila Santa  89061379Varzea Grande  MT                                  211026   000022
10259896740902611934828312309        0000000000000000000000000324644710000099363711101                     102700135367319012600000993637110941111101A200825000020500                                                     0248693012095190AgroDigitalAgroLeste Producao           Rua 21 de Abril 1044                    Santa Luzia 29269582Pelotas        RS                                  180226   000023
10259896740902611934828312309        0000000000000000000000000181969310000055985343101                     102700175801906012700000559853430941111101A150925000020500                                                     0275551725010984FazendaAgrolab Agroindustrial           Alameda 4 de Julho 1504                 Jardim Ameri92902539Londrina       PR                                  050227   000024
10259896740902611934828312309        0000000000000000000000000658518710000016851618101                     102700050890623082600000168516180941111101A280925000020500                                                     0100029891154879Thiago Rocha                            Rua das Flores 671                      Vila Santa  59027009Curitiba       PR                                  220926   000025
10259896740902611934828312309        0000000000000000000000000784888410000071984287101                     102700142743607012600000719842870941111101A130725000020500                                                     0219265735948848TerraCultivar Solucoes Rurais           Travessa das Flores 1865                Vila Nova   66250646Ribeirao Preto SP                                  060226   000026
10259896740902611934828312309        0000000000000000000000000514143610000059120072101                     102700186245013022600000591200720941111101A270825000020500                                                     0282797944483823AgroEliteAgroTrans Gestao Rura          Avenida Joao Pessoa 1580                Jardim Ameri57377028Caxias do Sul  RS                                  150326   000027
10259896740902611934828312309        0000000000000000000000000788178410000043136735101                     102700032027414022600000431367350941111101A310825000020500                                                     0100016124851949Thiago Dias                             Alameda 4 de Julho 96                   Boa Vista   86807894Catalao        GO                                  160326   000028
10259896740902611934828312309        0000000000000000000000000312226310000047145075101                     102700054684319102600000471450750941111101A010825000020500                                                     0100097390280588Ricardo Lima                            Rua Martin Luther King 1890             Bela Vista  71532762Campinas       SP                                  181126   000029
10259896740902611934828312309        0000000000000000000000000207700710000054478819101                     102700040856412102600000544788190941111101A010925000020500                                                     0204757455956961AgroServiceVerde Servicos Agri          Alameda 4 de Julho 1726                 Boa Vista   58261485Tres Lagoas    MS                                  111126   000030
10259896740902611934828312309        0000000000000000000000000446661710000052700132101                     102700044364131102500000527001320941111101A010725000020500                                                     0200578376876194AgroTradePlanalto Comercio de           Rua das Flores 636                      Jardim das P62075160Ponta Grossa   PR                                  301125   000031
10259896740902611934828312309        0000000000000000000000000144148610000089610840101                     102700130505511012700000896108400941111101A250925000020500                                                     0258533615361910EcoAgroGrowth Agroindustrial L          Praca Brasil 1875                       Bela Vista  96610021Rondonopolis   MT                                  100227   000032
10259896740902611934828312309        0000000000000000000000000450468610000037553195101                     102700019397830052600000375531950941111101A050925000020500                                                     0100016124851949Thiago Dias                             Alameda 4 de Julho 96                   Boa Vista   86807894Catalao        GO                                  290626   000033
10259896740902611934828312309        0000000000000000000000000936784710000027182123101                     102700190585918122600000271821230941111101A210725000020500                                                     0200578376876194AgroTradePlanalto Comercio de           Rua das Flores 636                      Jardim das P62075160Ponta Grossa   PR                                  170127   000034
10259896740902611934828312309        0000000000000000000000000196186210000081640957101                     102700184520515082600000816409570941111101A140725000020500                                                     0100048716835616Ricardo Almeida                         Praca das Flores 1569                   Vila Nova   59839529Goiania        GO                                  140926   000035
10259896740902611934828312309        0000000000000000000000000960374110000075656105101                     102700147703604092600000756561050941111101A130725000020500                                                     0288971885548905AgroGrowthAgroLog Servicos Agr          Travessa Ipiranga 1914                  Vila Nova   75405163Cuiaba         MT                                  041026   000036
10259896740902611934828312309        0000000000000000000000000511684110000051989847101                     102700133780226012600000519898470941111101A210825000020500                                                     0215645318384321EcoAgrosul Servicos Agricolas           Travessa das Flores 856                 Jardim das P43678205Caceres        MT                                  250226   000037
10259896740902611934828312309        0000000000000000000000000822324110000050842594101                     102700003716124062600000508425940941111101A040925000020500                                                     0297734674636407AgroMasterCampo Servicos Agric          Travessa Martin Luther King 333         Vila Nova   94624843Rio Verde      GO                                  240726   000038
10259896740902611934828312309        0000000000000000000000000708456410000011043104101                     102700087076202022600000110431040941111101A021025000020500                                                     0210741854022958AgroEcoAgro Agropecuaria S.A.           Rua Independencia 1360                  Jardim das P35649078Tres Lagoas    MS                                  040326   000039
10259896740902611934828312309        0000000000000000000000000351902810000057711179101                     102700118933116112500000577111790941111101A010925000020500                                                     0205991491033875AgroAgroSmart Agroindustrial L          Praca Independencia 15                  Vila Nova   64832037Ribeirao Preto SP                                  161225   000040
10259896740902611934828312309        0000000000000000000000000239414410000065543036101                     102700003638414122600000655430360941111101A250825000020500                                                     0257518320136189AgroBioAgroTrans Agronegocios           Avenida Martin Luther King 588          Santa Luzia 86648896Curitiba       PR                                  130127   000041
10259896740902611934828312309        0000000000000000000000000333616910000034856535101                     102700057009218102500000348565350941111101A020825000020500                                                     0282133007731303GraoAgriNova Agroindustrial Lt          Praca 4 de Julho 1151                   Jardim Ameri39466979Anapolis       GO                                  171125   000042
10259896740902611934828312309        0000000000000000000000000794377810000051111259101                     102700166332504092600000511112590941111101A031025000020500                                                     0100038926328011Larissa Ferreira                        Praca 7 de Setembro 737                 Centro      39530116Cuiaba         MT                                  041026   000043
10259896740902611934828312309        0000000000000000000000000241067810000076888187101                     102700129088928092600000768881870941111101A090825000020500                                                     0210624531801814AgroMasterFazenda Agronegocios          Travessa Ipiranga 998                   Parque Indus33667981Rio Verde      GO                                  281026   000044
10259896740902611934828312309        0000000000000000000000000640537810000017790634101                     102700158224526072600000177906340941111101A010825000020500                                                     0210161543989663PlanaltoAgroEnergia Solucoes R          Rua Brasil 1539                         Centro      90276030Aparecida de GoGO                                  250826   000045
10259896740902611934828312309        0000000000000000000000000809034910000025094495101                     102700133374503102600000250944950941111101A310725000020500                                                     0219853598428881AgroTechAgroMaster Agronegocio          Travessa dos Anjos 1709                 Vila Nova   37031907Santos         SP                                  021126   000046
10259896740902611934828312309        0000000000000000000000000446709310000041242976101                     102700038538130042600000412429760941111101A290625000020500                                                     0246003998275676AgroEliteAgroPlus Solucoes Rur          Alameda 11 de Junho 299                 Jardim Ameri83445240Porto Alegre   RS                                  300526   000047
10259896740902611934828312309        0000000000000000000000000616017910000075595972101                     102700153346619112500000755959720941111101A240725000020500                                                     0231233002788806AgroGrowthAgroLog Gestao Rural          Alameda dos Pinheiros 313               Boa Vista   82300987Tres Lagoas    MS                                  191225   000048
10259896740902611934828312309        0000000000000000000000000538914910000025810419101                     102700151679915082600000258104190941111101A250825000020500                                                     0200578376876194AgroTradePlanalto Comercio de           Rua das Flores 636                      Jardim das P62075160Ponta Grossa   PR                                  140926   000049
10259896740902611934828312309        0000000000000000000000000134218010000054639533101                     102700067070020102500000546395330941111101A020925000020500                                                     0274542813101867AgroFusionAgroPrime Sementes e          Avenida Brasil 414                      Vila Santa  81891973Goiania        GO                                  191125   000050
10259896740902611934828312309        0000000000000000000000000485920810000059050461101                     102700199473704092600000590504610941111101A110825000020500                                                     0248693012095190AgroDigitalAgroLeste Producao           Rua 21 de Abril 1044                    Santa Luzia 29269582Pelotas        RS                                  041026   000051
10259896740902611934828312309        0000000000000000000000000197100010000060875554101                     102700189445408032600000608755540941111101A110925000020500                                                     0246936450792192FazendaAgroViva Servicos Agric          Avenida Brasil 1000                     Jardim Plana96635097Sorocaba       SP                                  070426   000052
10259896740902611934828312309        0000000000000000000000000248170810000087079534101                     102700158781022012600000870795340941111101A090725000020500                                                     0205991491033875AgroAgroSmart Agroindustrial L          Praca Independencia 15                  Vila Nova   64832037Ribeirao Preto SP                                  210226   000053
10259896740902611934828312309        0000000000000000000000000656237310000012963760101                     102700089104825022600000129637600941111101A230725000020500                                                     0204757455956961AgroServiceVerde Servicos Agri          Alameda 4 de Julho 1726                 Boa Vista   58261485Tres Lagoas    MS                                  270326   000054
10259896740902611934828312309        0000000000000000000000000758828410000040036620101                     102700106542722072600000400366200941111101A270825000020500                                                     0269655087820921AgroDigitalFazenda Agropecuari          Rua dos Anjos 606                       Bela Vista  48810788Dourados       MS                                  210826   000055
10259896740902611934828312309        0000000000000000000000000822205310000048626480101                     102700190864913102600000486264800941111101A011025000020500                                                     0254379517555811AgroTransAgrolab Agropecuaria           Rua dos Pinheiros 1632                  Vila Santa  72295273Canoas         RS                                  121126   000056
10259896740902611934828312309        0000000000000000000000000425184510000019217651101                     102700111931708012600000192176510941111101A090925000020500                                                     0210939096877447SertaoAgroElite Servicos Agric          Alameda Independencia 1196              Centro      42392769Goiania        GO                                  070226   000057
10259896740902611934828312309        0000000000000000000000000350653010000081364274101                     102700128128931052600000813642740941111101A070725000020500                                                     0209882464653158AgroSementes Cultivo e Comerci          Praca 15 de Novembro 499                Vila Santa  39079524Ponta Pora     MS                                  300626   000058
10259896740902611934828312309        0000000000000000000000000469798010000038228301101                     102700178325130052600000382283010941111101A110825000020500                                                     0100012427295900Otavio Lima                             Alameda Brasil 1905                     Jardim Plana76496802Maringa        PR                                  290626   000059
10259896740902611934828312309        0000000000000000000000000769009710000081616331101                     102700090947523012700000816163310941111101A270825000020500                                                     0262248301374693RuralFazenda Solucoes Rurais L          Alameda Ipiranga 447                    Santa Luzia 26324769Varzea Grande  MT                                  220227   000060
10259896740902611934828312309        0000000000000000000000000497901710000072530915101                     102700118375407122500000725309150941111101A140925000020500                                                     0281314801259746TerraAgroLog Empreendimentos R          Travessa 11 de Junho 1879               Bela Vista  73453599Ribeirao Preto SP                                  060126   000061
10259896740902611934828312309        0000000000000000000000000953026910000071895980101                     102700162026305102600000718959800941111101A090825000020500                                                     0297895256210091AgroPlusAgroMaster Sementes e           Rua dos Pinheiros 600                   Parque Indus71190920Rondonopolis   MT                                  041126   000062
10259896740902611934828312309        0000000000000000000000000601871810000077941408101                     102700167210315122600000779414080941111101A250825000020500                                                     0229688633602077AgroFusionAgroPrime Agronegoci          Praca dos Pinheiros 400                 Vila Nova   41017088Porto Alegre   RS                                  140127   000063
10259896740902611934828312309        0000000000000000000000000635279310000015943474101                     102700109288120052600000159434740941111101A300625000020500                                                     0100029891154879Thiago Rocha                            Rua das Flores 671                      Vila Santa  59027009Curitiba       PR                                  190626   000064
10259896740902611934828312309        0000000000000000000000000124333410000051380553101                     102700016145423112500000513805530941111101A120725000020500                                                     0205025873901243AgroFusionAgroElite Sementes e          Praca das Flores 1394                   Jardim Plana39570520Rondonopolis   MT                                  231225   000065
10259896740902611934828312309        0000000000000000000000000103199110000049041615101                     102700027773628042600000490416150941111101A130725000020500                                                     0100057000944581Ana Freitas                             Avenida das Flores 1801                 Jardim Plana17179892Tres Lagoas    MS                                  280526   000066
10259896740902611934828312309        0000000000000000000000000386994410000036485492101                     102700181721327062600000364854920941111101A110925000020500                                                     0222601911461343AgroLesteCultivar Agropecuaria          Praca Brasil 246                        Santa Luzia 76574748Cuiaba         MT                                  270726   000067
10259896740902611934828312309        0000000000000000000000000632205810000070753663101                     102700097004326032600000707536630941111101A040925000020500                                                     0229155713403196SementesAgrosul Agronegocios L          Avenida das Acacias 538                 Centro      10388973Ponta Grossa   PR                                  250426   000068
10259896740902611934828312309        0000000000000000000000000557005310000058462137101                     102700177493719062600000584621370941111101A041025000020500                                                     0281258783661143SertaoAgriNova Exportacao de G          Avenida Martin Luther King 936          Jardim das P88676605Anapolis       GO                                  190726   000069
10259896740902611934828312309        0000000000000000000000000964990010000022465485101                     102700048333704012700000224654850941111101A080725000020500                                                     0200578376876194AgroTradePlanalto Comercio de           Rua das Flores 636                      Jardim das P62075160Ponta Grossa   PR                                  030227   000070
10259896740902611934828312309        0000000000000000000000000434300110000108426066101                     102700007408207082600001084260660941111101A240725000020500                                                     0248693012095190AgroDigitalAgroLeste Producao           Rua 21 de Abril 1044                    Santa Luzia 29269582Pelotas        RS                                  060926   000071
10259896740902611934828312309        0000000000000000000000000172002510000015705979101                     102700197039628102600000157059790941111101A090725000020500                                                     0246937807744974AgroFusionAgroDigital Servicos          Praca dos Pinheiros 1883                Jardim Ameri97840428Campinas       SP                                  271126   000072
10259896740902611934828312309        0000000000000000000000000924517910000035122313101                     102700153891923072600000351223130941111101A010725000020500                                                     0100057000944581Ana Freitas                             Avenida das Flores 1801                 Jardim Plana17179892Tres Lagoas    MS                                  220826   000073
10259896740902611934828312309        0000000000000000000000000820710710000034060445101                     102700170020329042600000340604450941111101A200825000020500                                                     0210161543989663PlanaltoAgroEnergia Solucoes R          Rua Brasil 1539                         Centro      90276030Aparecida de GoGO                                  290526   000074
10259896740902611934828312309        0000000000000000000000000364148610000044626944101                     102700125527824072600000446269440941111101A060725000020500                                                     0278318916245338EcoAgro Comercio de Graos Ltda          Travessa Brasil 1393                    Vila Santa  15531398Varzea Grande  MT                                  230826   000075
10259896740902611934828312309        0000000000000000000000000975127410000112781730101                     102700121762108082600001127817300941111101A260925000020500                                                     0222142099635136GraoAgroTrans Producao Agricol          Praca das Palmeiras 1499                Parque Indus37790834Foz do Iguacu  PR                                  070926   000076
10259896740902611934828312309        0000000000000000000000000325716510000107734896101                     102700170924914022700001077348960941111101A080825000020500                                                     0264750139832159AgroLesteEco Agroindustrial Lt          Rua 11 de Junho 1040                    Parque Indus92639610Porto Alegre   RS                                  160327   000077
10259896740902611934828312309        0000000000000000000000000179785910000056403434101                     102700097272031122500000564034340941111101A270625000020500                                                     0260824750619848AgroLesteAgroFusion Agronegoci          Rua Independencia 1596                  Jardim Ameri53998004Sinop          MT                                  300126   000078
10259896740902611934828312309        0000000000000000000000000599679610000068350135101                     102700084366617072600000683501350941111101A070925000020500                                                     0100016124851949Thiago Dias                             Alameda 4 de Julho 96                   Boa Vista   86807894Catalao        GO                                  160826   000079
10259896740902611934828312309        0000000000000000000000000109517110000026327962101                     102700169084714102500000263279620941111101A210825000020500                                                     0297734674636407AgroMasterCampo Servicos Agric          Travessa Martin Luther King 333         Vila Nova   94624843Rio Verde      GO                                  131125   000080
10259896740902611934828312309        0000000000000000000000000303544610000042779092101                     102700108817507022600000427790920941111101A010925000020500                                                     0269847706464401AgroGlobalAgroService Gestao R          Praca das Acacias 1332                  Jardim Ameri65926909Corumba        MS                                  090326   000081
10259896740902611934828312309        0000000000000000000000000191580910000083433715101                     102700043768218022600000834337150941111101A011025000020500                                                     0259209802093700AgroBioEco Agroindustrial Ltda          Travessa das Flores 777                 Santa Luzia 61456032Sinop          MT                                  200326   000082
10259896740902611934828312309        0000000000000000000000000985955610000010268309101                     102700099663317062600000102683090941111101A160825000020500                                                     0100038926328011Larissa Ferreira                        Praca 7 de Setembro 737                 Centro      39530116Cuiaba         MT                                  170726   000083
10259896740902611934828312309        0000000000000000000000000594513110000062453849101                     102700048075127122500000624538490941111101A160925000020500                                                     0231623078325693TerraAgroSmart Producao Agrico          Rua 15 de Novembro 30                   Jardim Plana10256471Aparecida de GoGO                                  260126   000084
10259896740902611934828312309        0000000000000000000000000409464810000063513985101                     102700198778405012600000635139850941111101A070825000020500                                                     0219694827917880AgroLogAgroFusion Comercio de           Travessa 7 de Setembro 627              Santa Luzia 29988901Caxias do Sul  RS                                  040226   000085
10259896740902611934828312309        0000000000000000000000000935083510000049147666101                     102700191210419112500000491476660941111101A070825000020500                                                     0260032226952774SertaoAgroNorte Producao Agric          Praca 7 de Setembro 1882                Centro      88908812Rondonopolis   MT                                  191225   000086
10259896740902611934828312309        0000000000000000000000000672032410000030355131101                     102700075140601112600000303551310941111101A220725000020500                                                     0100012475032985Helena Rodrigues                        Travessa das Acacias 1066               Parque Indus14023185Sinop          MT                                  011226   000087
10259896740902611934828312309        0000000000000000000000000409939010000027572885101                     102700175617418012600000275728850941111101A180725000020500                                                     0259209802093700AgroBioEco Agroindustrial Ltda          Travessa das Flores 777                 Santa Luzia 61456032Sinop          MT                                  170226   000088
10259896740902611934828312309        0000000000000000000000000800586210000049756584101                     102700128555522112600000497565840941111101A270725000020500                                                     0100029891154879Thiago Rocha                            Rua das Flores 671                      Vila Santa  59027009Curitiba       PR                                  221226   000089
10259896740902611934828312309        0000000000000000000000000375508310000034554527101                     102700122752909102500000345545270941111101A220725000020500                                                     0250483284005210AgroSupplyAgroBio Empreendimen          Praca dos Anjos 149                     Jardim das P34474362Anapolis       GO                                  081125   000090
10259896740902611934828312309        0000000000000000000000000685595810000044801129101                     102700100544826082600000448011290941111101A040725000020500                                                     0227331543974896CampoAgroDigital Solucoes Rura          Travessa Independencia 509              Boa Vista   66730146Cuiaba         MT                                  250926   000091
10259896740902611934828312309        0000000000000000000000000329713510000006367251101                     102700166834520102500000063672510941111101A150825000020500                                                     0252568791486841SolAgroBio Agroindustrial Ltda          Alameda Martin Luther King 466          Parque Indus17762351Rondonopolis   MT                                  191125   000092
10259896740902611934828312309        0000000000000000000000000287825510000057049432101                     102700005374327012700000570494320941111101A260825000020500                                                     0269847706464401AgroGlobalAgroService Gestao R          Praca das Acacias 1332                  Jardim Ameri65926909Corumba        MS                                  260227   000093
10259896740902611934828312309        0000000000000000000000000790003310000042450284101                     102700080409718122600000424502840941111101A050925000020500                                                     0100042409214826Bruno Ferreira                          Avenida Ipiranga 807                    Vila Santa  69909215Santos         SP                                  170127   000094
10259896740902611934828312309        0000000000000000000000000707911210000040865275101                     102700129191107012700000408652750941111101A280925000020500                                                     0245089420464911RuralAgroEnergia Cultivo e Com          Rua dos Anjos 1341                      Jardim Plana41787528Sinop          MT                                  060227   000095
10259896740902611934828312309        0000000000000000000000000752357010000043528386101                     102700011902011052600000435283860941111101A080725000020500                                                     0204337370325735AgroPrimePlanalto Servicos Agr          Praca das Acacias 1671                  Centro      98066612Corumba        MS                                  100626   000096
10259896740902611934828312309        0000000000000000000000000211080910000027614884101                     102700160484428072600000276148840941111101A170825000020500                                                     0100056317523689Zilda Dias                              Rua 21 de Abril 1579                    Jardim das P13794239Londrina       PR                                  270826   000097
10259896740902611934828312309        0000000000000000000000000880199610000089277346101                     102700117960428112500000892773460941111101A140725000020500                                                     0222601911461343AgroLesteCultivar Agropecuaria          Praca Brasil 246                        Santa Luzia 76574748Cuiaba         MT                                  281225   000098
10259896740902611934828312309        0000000000000000000000000889919510000070041522101                     102700149586416102500000700415220941111101A140925000020500                                                     0227555828207917SolAgroNorte Agropecuaria S.A.          Praca 11 de Junho 1210                  Vila Nova   34214315Caceres        MT                                  151125   000099
10259896740902611934828312309        0000000000000000000000000614316310000011829540101                     102700028107915022700000118295400941111101A090925000020500                                                     0293268144520785AgroVivaAgroElite Servicos Agr          Travessa das Palmeiras 1424             Bela Vista  47506188Aparecida de GoGO                                  170327   000100
10259896740902611934828312309        0000000000000000000000000833261610000023360395101                     102700009363803012600000233603950941111101A180725000020500                                                     0261516500369217AgroTransAgroDigital Agropecua          Alameda Independencia 1876              Jardim Plana24639708Aparecida de GoGO                                  020226   000101
10259896740902611934828312309        0000000000000000000000000221354510000051100300101                     102700006181206102500000511003000941111101A021025000020500                                                     0282133007731303GraoAgriNova Agroindustrial Lt          Praca 4 de Julho 1151                   Jardim Ameri39466979Anapolis       GO                                  051125   000102
10259896740902611934828312309        0000000000000000000000000520602010000008637735101                     102700146519025122600000086377350941111101A170825000020500                                                     0235515447493148TerraAgroTrans Empreendimentos          Praca das Acacias 1627                  Jardim Plana54962848Ponta Grossa   PR                                  240127   000103
10259896740902611934828312309        0000000000000000000000000476485010000037077952101                     102700192746115062600000370779520941111101A030825000020500                                                     0100035948838582Marcos Monteiro                         Rua Ipiranga 527                        Centro      40622362Canoas         RS                                  150726   000104
10259896740902611934828312309        0000000000000000000000000159150810000087953081101                     102700013815203012700000879530810941111101A150725000020500                                                     0275551725010984FazendaAgrolab Agroindustrial           Alameda 4 de Julho 1504                 Jardim Ameri92902539Londrina       PR                                  020227   000105
10259896740902611934828312309        0000000000000000000000000228117410000041896890101                     102700167547417072600000418968900941111101A080725000020500                                                     0200578376876194AgroTradePlanalto Comercio de           Rua das Flores 636                      Jardim das P62075160Ponta Grossa   PR                                  160826   000106
10259896740902611934828312309        0000000000000000000000000938665210000041548323101                     102700151292414112600000415483230941111101A130825000020500                                                     0281258783661143SertaoAgriNova Exportacao de G          Avenida Martin Luther King 936          Jardim das P88676605Anapolis       GO                                  141226   000107
10259896740902611934828312309        0000000000000000000000000418829510000046144389101                     102700008750725082600000461443890941111101A240925000020500                                                     0100029891154879Thiago Rocha                            Rua das Flores 671                      Vila Santa  59027009Curitiba       PR                                  240926   000108
10259896740902611934828312309        0000000000000000000000000122096910000069276071101                     102700023140723042600000692760710941111101A050825000020500                                                     0248693012095190AgroDigitalAgroLeste Producao           Rua 21 de Abril 1044                    Santa Luzia 29269582Pelotas        RS                                  230526   000109
10259896740902611934828312309        0000000000000000000000000124825810000087132824101                     102700196777823122600000871328240941111101A230925000020500                                                     0288926817645087TerraAgroGlobal Producao Agric          Rua das Palmeiras 1041                  Jardim Plana61149330Campo Grande   MS                                  220127   000110
10259896740902611934828312309        0000000000000000000000000905318810000031214821101                     102700079846216022700000312148210941111101A040725000020500                                                     0242525298980374AgrolabAgroPrime Agropecuaria           Avenida das Acacias 217                 Boa Vista   66725565Ponta Grossa   PR                                  180327   000111
10259896740902611934828312309        0000000000000000000000000223356410000030399294101                     102700118076007092600000303992940941111101A210925000020500                                                     0281258783661143SertaoAgriNova Exportacao de G          Avenida Martin Luther King 936          Jardim das P88676605Anapolis       GO                                  071026   000112
10259896740902611934828312309        0000000000000000000000000709143710000026902239101                     102700104597930052600000269022390941111101A160825000020500                                                     0281705876011354AgroAgroGlobal Agroindustrial           Rua Joao Pessoa 576                     Santa Luzia 68911732Dourados       MS                                  290626   000113
10259896740902611934828312309        0000000000000000000000000810579210000080458135101                     102700110012620122600000804581350941111101A200725000020500                                                     0248693012095190AgroDigitalAgroLeste Producao           Rua 21 de Abril 1044                    Santa Luzia 29269582Pelotas        RS                                  190127   000114
10259896740902611934828312309        0000000000000000000000000795196010000040569010101                     102700070398104052600000405690100941111101A210725000020500                                                     0262870393567834AgroTradeRural Agroindustrial           Avenida dos Pinheiros 1967              Bela Vista  86364507Caceres        MT                                  030626   000115
10259896740902611934828312309        0000000000000000000000000832469310000091712742101                     102700181060508092600000917127420941111101A270725000020500                                                     0100044439057558Sofia Carvalho                          Avenida 15 de Novembro 1129             Jardim Ameri61825263Porto Alegre   RS                                  081026   000116
10259896740902611934828312309        0000000000000000000000000175224710000052631865101                     102700064406825122500000526318650941111101A300925000020500                                                     0222142099635136GraoAgroTrans Producao Agricol          Praca das Palmeiras 1499                Parque Indus37790834Foz do Iguacu  PR                                  240126   000117
10259896740902611934828312309        0000000000000000000000000613920810000040057204101                     102700068165715042600000400572040941111101A050825000020500                                                     0222142099635136GraoAgroTrans Producao Agricol          Praca das Palmeiras 1499                Parque Indus37790834Foz do Iguacu  PR                                  150526   000118
10259896740902611934828312309        0000000000000000000000000892019710000049617425101                     102700051295411022700000496174250941111101A180925000020500                                                     0100057000944581Ana Freitas                             Avenida das Flores 1801                 Jardim Plana17179892Tres Lagoas    MS                                  130327   000119
10259896740902611934828312309        0000000000000000000000000483481610000086459296101                     102700073335918072600000864592960941111101A280625000020500                                                     0212430376268462AgrolabTerra Agronegocios Ltda          Rua Brasil 1624                         Parque Indus76386585Canoas         RS                                  170826   000120
10259896740902611934828312309        0000000000000000000000000583362610000027254722101                     102700082700527012600000272547220941111101A120725000020500                                                     0229688633602077AgroFusionAgroPrime Agronegoci          Praca dos Pinheiros 400                 Vila Nova   41017088Porto Alegre   RS                                  260226   000121
10259896740902611934828312309        0000000000000000000000000761767510000067874935101                     102700020220725122500000678749350941111101A190725000020500                                                     0100012427295900Otavio Lima                             Alameda Brasil 1905                     Jardim Plana76496802Maringa        PR                                  240126   000122
10259896740902611934828312309        0000000000000000000000000329680010000006911811101                     102700158670815062600000069118110941111101A030925000020500                                                     0289585026594897VerdeAgri Solucoes Rurais Ltda          Rua das Palmeiras 619                   Vila Nova   71245534Dourados       MS                                  150726   000123
10259896740902611934828312309        0000000000000000000000000330746210000055563453101                     102700195320322122600000555634530941111101A030925000020500                                                     0264750139832159AgroLesteEco Agroindustrial Lt          Rua 11 de Junho 1040                    Parque Indus92639610Porto Alegre   RS                                  210127   000124
10259896740902611934828312309        0000000000000000000000000806608110000046695047101                     102700062599512022700000466950470941111101A190725000020500                                                     0227555828207917SolAgroNorte Agropecuaria S.A.          Praca 11 de Junho 1210                  Vila Nova   34214315Caceres        MT                                  140327   000125
10259896740902611934828312309        0000000000000000000000000281637110000023791973101                     102700148922927102500000237919730941111101A060825000020500                                                     0235515447493148TerraAgroTrans Empreendimentos          Praca das Acacias 1627                  Jardim Plana54962848Ponta Grossa   PR                                  261125   000126
10259896740902611934828312309        0000000000000000000000000908736710000049377498101                     102700093211818072600000493774980941111101A140925000020500                                                     0219265735948848TerraCultivar Solucoes Rurais           Travessa das Flores 1865                Vila Nova   66250646Ribeirao Preto SP                                  170826   000127
10259896740902611934828312309        0000000000000000000000000437367210000051269889101                     102700179870005022700000512698890941111101A290825000020500                                                     0100017793870927Otavio Freitas                          Alameda das Palmeiras 1945              Jardim Ameri44408990Santos         SP                                  070327   000128
10259896740902611934828312309        0000000000000000000000000377321410000041922678101                     102700130830323122600000419226780941111101A090725000020500                                                     0239811294868384AgroTransRural Servicos Agrico          Travessa dos Anjos 679                  Bela Vista  18665049Rio Verde      GO                                  220127   000129
10259896740902611934828312309        0000000000000000000000000718846210000029621260101                     102700046697903022600000296212600941111101A041025000020500                                                     0259209802093700AgroBioEco Agroindustrial Ltda          Travessa das Flores 777                 Santa Luzia 61456032Sinop          MT                                  050326   000130
10259896740902611934828312309        0000000000000000000000000791733610000026569590101                     102700183257013122600000265695900941111101A070725000020500                                                     0281588482033863AgroGrowthVerde Servicos Agric          Avenida das Acacias 966                 Vila Nova   51186597Caxias do Sul  RS                                  120127   000131
10259896740902611934828312309        0000000000000000000000000859809110000038756397101                     102700005061210082600000387563970941111101A010925000020500                                                     0254379517555811AgroTransAgrolab Agropecuaria           Rua dos Pinheiros 1632                  Vila Santa  72295273Canoas         RS                                  090926   000132
10259896740902611934828312309        0000000000000000000000000274685410000055260929101                     102700190793117122600000552609290941111101A180825000020500                                                     0246209737685454AgroGrowthAgroLog Agroindustri          Travessa das Palmeiras 1467             Parque Indus12588078Rondonopolis   MT                                  160127   000133
10259896740902611934828312309        0000000000000000000000000821135610000043242098101                     102700013631428012700000432420980941111101A070925000020500                                                     0282133007731303GraoAgriNova Agroindustrial Lt          Praca 4 de Julho 1151                   Jardim Ameri39466979Anapolis       GO                                  270227   000134
10259896740902611934828312309        0000000000000000000000000766786910000024569881101                     102700069947428102500000245698810941111101A160725000020500                                                     0235515447493148TerraAgroTrans Empreendimentos          Praca das Acacias 1627                  Jardim Plana54962848Ponta Grossa   PR                                  271125   000135
10259896740902611934828312309        0000000000000000000000000292030210000007058967101                     102700077560007062600000070589670941111101A260825000020500                                                     0100029891154879Thiago Rocha                            Rua das Flores 671                      Vila Santa  59027009Curitiba       PR                                  070726   000136
10259896740902611934828312309        0000000000000000000000000931612610000027562279101                     102700134901227042600000275622790941111101A150925000020500                                                     0237934159943543AgroMasterBio Comercio de Grao          Avenida das Flores 1792                 Centro      99272510Aparecida de GoGO                                  270526   000137
10259896740902611934828312309        0000000000000000000000000688913110000067825530101                     102700061864006092600000678255300941111101A010825000020500                                                     0229688633602077AgroFusionAgroPrime Agronegoci          Praca dos Pinheiros 400                 Vila Nova   41017088Porto Alegre   RS                                  061026   000138
10259896740902611934828312309        0000000000000000000000000356057310000071526758101                     102700087274012022600000715267580941111101A060725000020500                                                     0229688633602077AgroFusionAgroPrime Agronegoci          Praca dos Pinheiros 400                 Vila Nova   41017088Porto Alegre   RS                                  140326   000139
10259896740902611934828312309        0000000000000000000000000744617910000056572790101                     102700146027805012600000565727900941111101A110725000020500                                                     0274542813101867AgroFusionAgroPrime Sementes e          Avenida Brasil 414                      Vila Santa  81891973Goiania        GO                                  040226   000140
10259896740902611934828312309        0000000000000000000000000535353810000069975924101                     102700106510307032600000699759240941111101A080725000020500                                                     0296240574535482AgroEnergiaAgroTrade Sementes           Praca Joao Pessoa 1409                  Vila Santa  98345756Dourados       MS                                  060426   000141
10259896740902611934828312309        0000000000000000000000000366531010000011653785101                     102700167800003012600000116537850941111101A070825000020500                                                     0261516500369217AgroTransAgroDigital Agropecua          Alameda Independencia 1876              Jardim Plana24639708Aparecida de GoGO                                  020226   000142
10259896740902611934828312309        0000000000000000000000000741529810000083736202101                     102700166277803062600000837362020941111101A110725000020500                                                     0219265735948848TerraCultivar Solucoes Rurais           Travessa das Flores 1865                Vila Nova   66250646Ribeirao Preto SP                                  030726   000143
10259896740902611934828312309        0000000000000000000000000982959310000044156857101                     102700184661121062600000441568570941111101A140825000020500                                                     0248693012095190AgroDigitalAgroLeste Producao           Rua 21 de Abril 1044                    Santa Luzia 29269582Pelotas        RS                                  210726   000144
10259896740902611934828312309        0000000000000000000000000829145610000024954811101                     102700193870203072600000249548110941111101A040825000020500                                                     0210161543989663PlanaltoAgroEnergia Solucoes R          Rua Brasil 1539                         Centro      90276030Aparecida de GoGO                                  020826   000145
10259896740902611934828312309        0000000000000000000000000699335310000030692517101                     102700104646401102600000306925170941111101A070725000020500                                                     0254379517555811AgroTransAgrolab Agropecuaria           Rua dos Pinheiros 1632                  Vila Santa  72295273Canoas         RS                                  311026   000146
10259896740902611934828312309        0000000000000000000000000910102310000036539578101                     102700131996701052600000365395780941111101A140925000020500                                                     0240491154959787SertaoAgroService Exportacao d          Praca Martin Luther King 56             Santa Luzia 48237441Foz do Iguacu  PR                                  310526   000147
10259896740902611934828312309        0000000000000000000000000491360810000018209975101                     102700188676226022600000182099750941111101A280825000020500                                                     0288926817645087TerraAgroGlobal Producao Agric          Rua das Palmeiras 1041                  Jardim Plana61149330Campo Grande   MS                                  280326   000148
10259896740902611934828312309        0000000000000000000000000992493610000040684234101                     102700176530619102500000406842340941111101A010825000020500                                                     0220773525278038AgroSmartAgrosul Cultivo e Com          Alameda dos Pinheiros 1658              Jardim Ameri89706224Campo Grande   MS                                  181125   000149
10259896740902611934828312309        0000000000000000000000000572606610000072681106101                     102700175627929032600000726811060941111101A310725000020500                                                     0220696037754150AgroBioPlanalto Agroindustrial          Travessa Brasil 853                     Parque Indus41285142Santa Maria    RS                                  280426   000150
10259896740902611934828312309        0000000000000000000000000689744710000073857542101                     102700157426914012700000738575420941111101A260925000020500                                                     0100000368738171Wesley Nogueira                         Alameda das Palmeiras 15                Jardim Plana90104122Goiania        GO                                  130227   000151
10259896740902611934828312309        0000000000000000000000000317744510000009239400101                     102700044691409062600000092394000941111101A020725000020500                                                     0229155713403196SementesAgrosul Agronegocios L          Avenida das Acacias 538                 Centro      10388973Ponta Grossa   PR                                  090726   000152
10259896740902611934828312309        0000000000000000000000000587722710000051651345101                     102700036810321092600000516513450941111101A150825000020500                                                     0220773525278038AgroSmartAgrosul Cultivo e Com          Alameda dos Pinheiros 1658              Jardim Ameri89706224Campo Grande   MS                                  211026   000153
10259896740902611934828312309        0000000000000000000000000956540010000018562211101                     102700109169917122600000185622110941111101A031025000020500                                                     0220773525278038AgroSmartAgrosul Cultivo e Com          Alameda dos Pinheiros 1658              Jardim Ameri89706224Campo Grande   MS                                  160127   000154
10259896740902611934828312309        0000000000000000000000000829052710000049155967101                     102700103394522122500000491559670941111101A300725000020500                                                     0215645318384321EcoAgrosul Servicos Agricolas           Travessa das Flores 856                 Jardim das P43678205Caceres        MT                                  210126   000155
10259896740902611934828312309        0000000000000000000000000813404010000044231484101                     102700001452416122600000442314840941111101A010925000020500                                                     0228972111036896AgroesteAgri Empreendimentos R          Travessa 21 de Abril 1582               Boa Vista   86209111Sao Paulo      SP                                  150127   000156
10259896740902611934828312309        0000000000000000000000000641338510000017954884101                     102700007734513032600000179548840941111101A230825000020500                                                     0262248301374693RuralFazenda Solucoes Rurais L          Alameda Ipiranga 447                    Santa Luzia 26324769Varzea Grande  MT                                  120426   000157
10259896740902611934828312309        0000000000000000000000000547863110000012901355101                     102700138304909112500000129013550941111101A040725000020500                                                     0225999586620524AgroEnergiaCampo Producao Agri          Praca Ipiranga 1267                     Vila Santa  89061379Varzea Grande  MT                                  091225   000158
10259896740902611934828312309        0000000000000000000000000416341610000026184204101                     102700177414922012700000261842040941111101A080825000020500                                                     0258533615361910EcoAgroGrowth Agroindustrial L          Praca Brasil 1875                       Bela Vista  96610021Rondonopolis   MT                                  210227   000159
10259896740902611934828312309        0000000000000000000000000423566510000098287422101                     102700150216612062600000982874220941111101A020825000020500                                                     0269291111715973AgroFusionAgroGlobal Gestao Ru          Travessa 4 de Julho 1337                Jardim das P40237954Londrina       PR                                  120726   000160
10259896740902611934828312309        0000000000000000000000000329467710000046362335101                     102700078003518072600000463623350941111101A140825000020500                                                     0220773525278038AgroSmartAgrosul Cultivo e Com          Alameda dos Pinheiros 1658              Jardim Ameri89706224Campo Grande   MS                                  170826   000161
10259896740902611934828312309        0000000000000000000000000500102410000002579779101                     102700069310515102500000025797790941111101A020725000020500                                                     0254379517555811AgroTransAgrolab Agropecuaria           Rua dos Pinheiros 1632                  Vila Santa  72295273Canoas         RS                                  141125   000162
10259896740902611934828312309        0000000000000000000000000229006610000089957210101                     102700078345308112500000899572100941111101A230725000020500                                                     0224375845716352AgrosulSol Producao Agricola L          Travessa 4 de Julho 633                 Jardim das P64566477Sorocaba       SP                                  081225   000163
10259896740902611934828312309        0000000000000000000000000371717610000093533740101                     102700172221410112500000935337400941111101A220925000020500                                                     0236699794512348AgroMasterAgroLog Gestao Rural          Rua Ipiranga 1614                       Bela Vista  46619181Londrina       PR                                  101225   000164
10259896740902611934828312309        0000000000000000000000000510285910000078216621101                     102700128779525022600000782166210941111101A110925000020500                                                     0231623078325693TerraAgroSmart Producao Agrico          Rua 15 de Novembro 30                   Jardim Plana10256471Aparecida de GoGO                                  270326   000165
10259896740902611934828312309        0000000000000000000000000952390110000047752419101                     102700054758519122500000477524190941111101A110725000020500                                                     0210161543989663PlanaltoAgroEnergia Solucoes R          Rua Brasil 1539                         Centro      90276030Aparecida de GoGO                                  180126   000166
10259896740902611934828312309        0000000000000000000000000738191710000041934974101                     102700130310918102600000419349740941111101A120725000020500                                                     0254379517555811AgroTransAgrolab Agropecuaria           Rua dos Pinheiros 1632                  Vila Santa  72295273Canoas         RS                                  171126   000167
10259896740902611934828312309        0000000000000000000000000453053510000040589853101                     102700155204324032600000405898530941111101A290725000020500                                                     0269847706464401AgroGlobalAgroService Gestao R          Praca das Acacias 1332                  Jardim Ameri65926909Corumba        MS                                  230426   000168
10259896740902611934828312309        0000000000000000000000000419307110000051962775101                     102700145368405022700000519627750941111101A060925000020500                                                     0210161543989663PlanaltoAgroEnergia Solucoes R          Rua Brasil 1539                         Centro      90276030Aparecida de GoGO                                  070327   000169
10259896740902611934828312309        0000000000000000000000000480658910000034517455101                     102700018922214012700000345174550941111101A060925000020500                                                     0239811294868384AgroTransRural Servicos Agrico          Travessa dos Anjos 679                  Bela Vista  18665049Rio Verde      GO                                  130227   000170
10259896740902611934828312309        0000000000000000000000000524232110000044518099101                     102700194570322102600000445180990941111101A180725000020500                                                     0239811294868384AgroTransRural Servicos Agrico          Travessa dos Anjos 679                  Bela Vista  18665049Rio Verde      GO                                  211126   000171
10259896740902611934828312309        0000000000000000000000000879977910000062696316101                     102700035683404062600000626963160941111101A041025000020500                                                     0224375845716352AgrosulSol Producao Agricola L          Travessa 4 de Julho 633                 Jardim das P64566477Sorocaba       SP                                  040726   000172
10259896740902611934828312309        0000000000000000000000000622351210000023137622101                     102700093099408042600000231376220941111101A080825000020500                                                     0100017793870927Otavio Freitas                          Alameda das Palmeiras 1945              Jardim Ameri44408990Santos         SP                                  080526   000173
10259896740902611934828312309        0000000000000000000000000292604810000067068601101                     102700110347905072600000670686010941111101A210825000020500                                                     0209882464653158AgroSementes Cultivo e Comerci          Praca 15 de Novembro 499                Vila Santa  39079524Ponta Pora     MS                                  040826   000174
10259896740902611934828312309        0000000000000000000000000751878510000041059942101                     102700026313703122500000410599420941111101A280725000020500                                                     0240786063228314CampoAgroLeste Empreendimentos          Rua 7 de Setembro 143                   Vila Santa  99095308Caxias do Sul  RS                                  020126   000175
10259896740902611934828312309        0000000000000000000000000900505110000019202728101                     102700169083506092600000192027280941111101A310825000020500                                                     0219075432891605AgriAgri Gestao Rural S.A.              Praca das Palmeiras 750                 Vila Santa  19073731Pelotas        RS                                  061026   000176
10259896740902611934828312309        0000000000000000000000000897645710000020159772101                     102700014262310122500000201597720941111101A270725000020500                                                     0297490971385845RuralAgroLog Servicos Agricola          Rua 4 de Julho 1067                     Jardim Ameri80141752Maringa        PR                                  090126   000177
10259896740902611934828312309        0000000000000000000000000913016010000081001690101                     102700103170911052600000810016900941111101A050925000020500                                                     0100061258546315Valeria Almeida                         Rua Independencia 228                   Vila Nova   44672052Tres Lagoas    MS                                  100626   000178
10259896740902611934828312309        0000000000000000000000000299308910000024026829101                     102700196279207022700000240268290941111101A011025000020500                                                     0208840067191332SolSertao Comercio de Graos Lt          Praca das Flores 1682                   Jardim das P28178613Londrina       PR                                  090327   000179
10259896740902611934828312309        0000000000000000000000000327885010000013100626101                     102700061728416032600000131006260941111101A150925000020500                                                     0210939096877447SertaoAgroElite Servicos Agric          Alameda Independencia 1196              Centro      42392769Goiania        GO                                  150426   000180
10259896740902611934828312309        0000000000000000000000000795605810000053908304101                     102700055663125122600000539083040941111101A110925000020500                                                     0282133007731303GraoAgriNova Agroindustrial Lt          Praca 4 de Julho 1151                   Jardim Ameri39466979Anapolis       GO                                  240127   000181
10259896740902611934828312309        0000000000000000000000000587296110000061031326101                     102700113753005022600000610313260941111101A210825000020500                                                     0281314801259746TerraAgroLog Empreendimentos R          Travessa 11 de Junho 1879               Bela Vista  73453599Ribeirao Preto SP                                  070326   000182
10259896740902611934828312309        0000000000000000000000000737183710000011470921101                     102700129755915032600000114709210941111101A280625000020500                                                     0278318916245338EcoAgro Comercio de Graos Ltda          Travessa Brasil 1393                    Vila Santa  15531398Varzea Grande  MT                                  140426   000183
10259896740902611934828312309        0000000000000000000000000639773210000040541354101                     102700196074708012600000405413540941111101A260725000020500                                                     0204757455956961AgroServiceVerde Servicos Agri          Alameda 4 de Julho 1726                 Boa Vista   58261485Tres Lagoas    MS                                  070226   000184
10259896740902611934828312309        0000000000000000000000000762860910000019045676101                     102700067101808042600000190456760941111101A010725000020500                                                     0264750139832159AgroLesteEco Agroindustrial Lt          Rua 11 de Junho 1040                    Parque Indus92639610Porto Alegre   RS                                  080526   000185
10259896740902611934828312309        0000000000000000000000000768627110000025959242101                     102700151919721112500000259592420941111101A250725000020500                                                     0100061381615968Gabriel Lima                            Avenida dos Pinheiros 1140              Bela Vista  88381496Santos         SP                                  211225   000186
10259896740902611934828312309        0000000000000000000000000417104410000059800762101                     102700158560017112600000598007620941111101A190725000020500                                                     0297734674636407AgroMasterCampo Servicos Agric          Travessa Martin Luther King 333         Vila Nova   94624843Rio Verde      GO                                  171226   000187
10259896740902611934828312309        0000000000000000000000000376772310000020195109101                     102700036015003012700000201951090941111101A220825000020500                                                     0229688633602077AgroFusionAgroPrime Agronegoci          Praca dos Pinheiros 400                 Vila Nova   41017088Porto Alegre   RS                                  020227   000188
10259896740902611934828312309        0000000000000000000000000280252110000064735118101                     102700080903727102500000647351180941111101A010825000020500                                                     0209217828097109RuralSementes Comercio de Grao          Travessa Joao Pessoa 1875               Boa Vista   50169451Rio Verde      GO                                  261125   000189
10259896740902611934828312309        0000000000000000000000000853595610000046853488101                     102700045879930062600000468534880941111101A240825000020500                                                     0205025873901243AgroFusionAgroElite Sementes e          Praca das Flores 1394                   Jardim Plana39570520Rondonopolis   MT                                  300726   000190
10259896740902611934828312309        0000000000000000000000000238208710000094020599101                     102700086719809072600000940205990941111101A230725000020500                                                     0225385033347321AgroGrowthVerde Agropecuaria S          Avenida Joao Pessoa 760                 Parque Indus92605340Sorocaba       SP                                  080826   000191
10259896740902611934828312309        0000000000000000000000000313269310000013682027101                     102700116879014012600000136820270941111101A090925000020500                                                     0259209802093700AgroBioEco Agroindustrial Ltda          Travessa das Flores 777                 Santa Luzia 61456032Sinop          MT                                  130226   000192
10259896740902611934828312309        0000000000000000000000000629244010000046554112101                     102700029140602102600000465541120941111101A060925000020500                                                     0100017793870927Otavio Freitas                          Alameda das Palmeiras 1945              Jardim Ameri44408990Santos         SP                                  011126   000193
10259896740902611934828312309        0000000000000000000000000676822710000033675124101                     102700136197619072600000336751240941111101A270925000020500                                                     0100020102514836Daniel Freitas                          Travessa Independencia 1237             Jardim das P94220634Santos         SP                                  180826   000194
10259896740902611934828312309        0000000000000000000000000908265610000060241792101                     102700012295217122500000602417920941111101A130925000020500                                                     0227555828207917SolAgroNorte Agropecuaria S.A.          Praca 11 de Junho 1210                  Vila Nova   34214315Caceres        MT                                  160126   000195
10259896740902611934828312309        0000000000000000000000000699655110000013821638101                     102700142562002022700000138216380941111101A040825000020500                                                     0231623078325693TerraAgroSmart Producao Agrico          Rua 15 de Novembro 30                   Jardim Plana10256471Aparecida de GoGO                                  040327   000196
10259896740902611934828312309        0000000000000000000000000299875510000025097187101                     102700115029506022700000250971870941111101A070825000020500                                                     0265530536941455AgroEcoAgroGlobal Cultivo e Co          Praca Joao Pessoa 1400                  Jardim das P25593197Foz do Iguacu  PR                                  080327   000197
10259896740902611934828312309        0000000000000000000000000760717410000090288686101                     102700143287405102600000902886860941111101A090825000020500                                                     0281258783661143SertaoAgriNova Exportacao de G          Avenida Martin Luther King 936          Jardim das P88676605Anapolis       GO                                  041126   000198
10259896740902611934828312309        0000000000000000000000000367978710000034599641101                     102700070564809052600000345996410941111101A170825000020500                                                     0205025873901243AgroFusionAgroElite Sementes e          Praca das Flores 1394                   Jardim Plana39570520Rondonopolis   MT                                  080626   000199
10259896740902611934828312309        0000000000000000000000000987665710000002848222101                     102700138669521112600000028482220941111101A100925000020500                                                     0100020102514836Daniel Freitas                          Travessa Independencia 1237             Jardim das P94220634Santos         SP                                  211226   000200
10259896740902611934828312309        0000000000000000000000000835134110000060113697101                     102700030649615012600000601136970941111101A300625000020500                                                     0205025873901243AgroFusionAgroElite Sementes e          Praca das Flores 1394                   Jardim Plana39570520Rondonopolis   MT                                  140226   000201
10259896740902611934828312309        0000000000000000000000000556987510000005461884101                     102700147385406062600000054618840941111101A280625000020500                                                     0237277991676356CultivarAgroFusion Empreendime          Avenida das Flores 1993                 Parque Indus23320103Santos         SP                                  060726   000202
10259896740902611934828312309        0000000000000000000000000160247210000048196642101                     102700170546313032600000481966420941111101A070725000020500                                                     0229688633602077AgroFusionAgroPrime Agronegoci          Praca dos Pinheiros 400                 Vila Nova   41017088Porto Alegre   RS                                  120426   000203
10259896740902611934828312309        0000000000000000000000000936901810000056262532101                     102700179302809012700000562625320941111101A090725000020500                                                     0278313473934629AgroSupplyAgroLog Agropecuaria          Praca dos Anjos 996                     Boa Vista   31729848Santos         SP                                  080227   000204
10259896740902611934828312309        0000000000000000000000000103562810000024923296101                     102700068976825102500000249232960941111101A130925000020500                                                     0212430376268462AgrolabTerra Agronegocios Ltda          Rua Brasil 1624                         Parque Indus76386585Canoas         RS                                  241125   000205
10259896740902611934828312309        0000000000000000000000000663917210000042961450101                     102700118677505012600000429614500941111101A020825000020500                                                     0200578376876194AgroTradePlanalto Comercio de           Rua das Flores 636                      Jardim das P62075160Ponta Grossa   PR                                  040226   000206
10259896740902611934828312309        0000000000000000000000000694548710000048918892101                     102700003257904052600000489188920941111101A120925000020500                                                     0290758876222325SementesVerde Agropecuaria S.A          Alameda das Acacias 497                 Jardim Ameri59114381Campo Grande   MS                                  030626   000207
10259896740902611934828312309        0000000000000000000000000759359910000049087496101                     102700065127317102500000490874960941111101A130925000020500                                                     0269655087820921AgroDigitalFazenda Agropecuari          Rua dos Anjos 606                       Bela Vista  48810788Dourados       MS                                  161125   000208
10259896740902611934828312309        0000000000000000000000000675898610000077980452101                     102700013419705022600000779804520941111101A220725000020500                                                     0100029891154879Thiago Rocha                            Rua das Flores 671                      Vila Santa  59027009Curitiba       PR                                  070326   000209
10259896740902611934828312309        0000000000000000000000000542639610000122180329101                     102700136189715112600001221803290941111101A140925000020500                                                     0254379517555811AgroTransAgrolab Agropecuaria           Rua dos Pinheiros 1632                  Vila Santa  72295273Canoas         RS                                  151226   000210
10259896740902611934828312309        0000000000000000000000000559532110000016196995101                     102700165028608022600000161969950941111101A090825000020500                                                     0246936450792192FazendaAgroViva Servicos Agric          Avenida Brasil 1000                     Jardim Plana96635097Sorocaba       SP                                  100326   000211
10259896740902611934828312309        0000000000000000000000000242623110000051583131101                     102700108600002022700000515831310941111101A110925000020500                                                     0210161543989663PlanaltoAgroEnergia Solucoes R          Rua Brasil 1539                         Centro      90276030Aparecida de GoGO                                  040327   000212
10259896740902611934828312309        0000000000000000000000000388003310000057036665101                     102700008740926052600000570366650941111101A200725000020500                                                     0236699794512348AgroMasterAgroLog Gestao Rural          Rua Ipiranga 1614                       Bela Vista  46619181Londrina       PR                                  250626   000213
10259896740902611934828312309        0000000000000000000000000274290210000066812855101                     102700102049603032600000668128550941111101A080825000020500                                                     0281314801259746TerraAgroLog Empreendimentos R          Travessa 11 de Junho 1879               Bela Vista  73453599Ribeirao Preto SP                                  020426   000214
10259896740902611934828312309        0000000000000000000000000445116910000087105663101                     102700065996809122600000871056630941111101A100725000020500                                                     0219265735948848TerraCultivar Solucoes Rurais           Travessa das Flores 1865                Vila Nova   66250646Ribeirao Preto SP                                  080127   000215
10259896740902611934828312309        0000000000000000000000000910492110000014148058101                     102700029350725032600000141480580941111101A230725000020500                                                     0251227166488201CampoAgroDigital Comercio de G          Rua 7 de Setembro 267                   Jardim Ameri59457231Sinop          MT                                  240426   000216
10259896740902611934828312309        0000000000000000000000000478866110000103916574101                     102700001413009022700001039165740941111101A140925000020500                                                     0100057000944581Ana Freitas                             Avenida das Flores 1801                 Jardim Plana17179892Tres Lagoas    MS                                  110327   000217
10259896740902611934828312309        0000000000000000000000000546669010000080446629101                     102700083769611112500000804466290941111101A060825000020500                                                     0260824750619848AgroLesteAgroFusion Agronegoci          Rua Independencia 1596                  Jardim Ameri53998004Sinop          MT                                  111225   000218
10259896740902611934828312309        0000000000000000000000000396563310000051810174101                     102700044526001102600000518101740941111101A021025000020500                                                     0247189783876334AgriNovaSertao Cultivo e Comer          Avenida Brasil 1111                     Jardim Plana82649572Dourados       MS                                  311026   000219
10259896740902611934828312309        0000000000000000000000000346850410000033569193101                     102700088715926092600000335691930941111101A130925000020500                                                     0229688633602077AgroFusionAgroPrime Agronegoci          Praca dos Pinheiros 400                 Vila Nova   41017088Porto Alegre   RS                                  261026   000220
10259896740902611934828312309        0000000000000000000000000599068610000098788340101                     102700160404513102600000987883400941111101A230725000020500                                                     0282797944483823AgroEliteAgroTrans Gestao Rura          Avenida Joao Pessoa 1580                Jardim Ameri57377028Caxias do Sul  RS                                  121126   000221
10259896740902611934828312309        0000000000000000000000000499835210000037093790101                     102700025769505122600000370937900941111101A290625000020500                                                     0236699794512348AgroMasterAgroLog Gestao Rural          Rua Ipiranga 1614                       Bela Vista  46619181Londrina       PR                                  040127   000222
10259896740902611934828312309        0000000000000000000000000796161410000035541244101                     102700162781315012700000355412440941111101A120825000020500                                                     0100097390280588Ricardo Lima                            Rua Martin Luther King 1890             Bela Vista  71532762Campinas       SP                                  140227   000223
10259896740902611934828312309        0000000000000000000000000797600410000059303862101                     102700188568824092600000593038620941111101A100725000020500                                                     0257518320136189AgroBioAgroTrans Agronegocios           Avenida Martin Luther King 588          Santa Luzia 86648896Curitiba       PR                                  241026   000224
10259896740902611934828312309        0000000000000000000000000687842310000086126069101                     102700193506326102500000861260690941111101A090825000020500                                                     0219265735948848TerraCultivar Solucoes Rurais           Travessa das Flores 1865                Vila Nova   66250646Ribeirao Preto SP                                  251125   000225
10259896740902611934828312309        0000000000000000000000000396843410000033006896101                     102700009046028012600000330068960941111101A250725000020500                                                     0269672765848879AgriAgroFusion Comercio de Gra          Alameda das Palmeiras 262               Boa Vista   64961225Sorocaba       SP                                  270226   000226
10259896740902611934828312309        0000000000000000000000000844839910000025541531101                     102700048455911122600000255415310941111101A240725000020500                                                     0258533615361910EcoAgroGrowth Agroindustrial L          Praca Brasil 1875                       Bela Vista  96610021Rondonopolis   MT                                  100127   000227
10259896740902611934828312309        0000000000000000000000000911905810000044429176101                     102700150237425062600000444291760941111101A150925000020500                                                     0295687145121479CerradoCerrado Agronegocios Lt          Rua dos Pinheiros 773                   Vila Nova   85433624Goiania        GO                                  250726   000228
10259896740902611934828312309        0000000000000000000000000263108110000052521474101                     102700116588123052600000525214740941111101A300625000020500                                                     0201897221085000AgroesteAgroViva Producao Agri          Alameda 15 de Novembro 1730             Vila Nova   85531464Catalao        GO                                  220626   000229
10259896740902611934828312309        0000000000000000000000000323797710000083484049101                     102700127863427102500000834840490941111101A280625000020500                                                     0254379517555811AgroTransAgrolab Agropecuaria           Rua dos Pinheiros 1632                  Vila Santa  72295273Canoas         RS                                  261125   000230
10259896740902611934828312309        0000000000000000000000000668433510000046467984101                     102700141347805092600000464679840941111101A060725000020500                                                     0227555828207917SolAgroNorte Agropecuaria S.A.          Praca 11 de Junho 1210                  Vila Nova   34214315Caceres        MT                                  051026   000231
10259896740902611934828312309        0000000000000000000000000343838810000052388834101                     102700092857926082600000523888340941111101A220925000020500                                                     0281705876011354AgroAgroGlobal Agroindustrial           Rua Joao Pessoa 576                     Santa Luzia 68911732Dourados       MS                                  250926   000232
10259896740902611934828312309        0000000000000000000000000486673510000025613289101                     102700015416502012600000256132890941111101A240825000020500                                                     0224375845716352AgrosulSol Producao Agricola L          Travessa 4 de Julho 633                 Jardim das P64566477Sorocaba       SP                                  010226   000233
10259896740902611934828312309        0000000000000000000000000458462210000030918113101                     102700141037001112600000309181130941111101A260725000020500                                                     0297895256210091AgroPlusAgroMaster Sementes e           Rua dos Pinheiros 600                   Parque Indus71190920Rondonopolis   MT                                  011226   000234
10259896740902611934828312309        0000000000000000000000000719219910000070695236101                     102700033248427022600000706952360941111101A021025000020500                                                     0100029891154879Thiago Rocha                            Rua das Flores 671                      Vila Santa  59027009Curitiba       PR                                  290326   000235
10259896740902611934828312309        0000000000000000000000000325027910000058624780101                     102700143876817092600000586247800941111101A220925000020500                                                     0213285544783915SertaoBio Agronegocios Ltda.            Praca 7 de Setembro 2000                Jardim das P43542126Cuiaba         MT                                  171026   000236
10259896740902611934828312309        0000000000000000000000000150899110000075996942101                     102700044254031122600000759969420941111101A031025000020500                                                     0219265735948848TerraCultivar Solucoes Rurais           Travessa das Flores 1865                Vila Nova   66250646Ribeirao Preto SP                                  300127   000237
10259896740902611934828312309        0000000000000000000000000176375510000029775875101                     102700102399325112500000297758750941111101A200725000020500                                                     0219694827917880AgroLogAgroFusion Comercio de           Travessa 7 de Setembro 627              Santa Luzia 29988901Caxias do Sul  RS                                  251225   000238
10259896740902611934828312309        0000000000000000000000000354283510000084188494101                     102700133503817092600000841884940941111101A240725000020500                                                     0258533615361910EcoAgroGrowth Agroindustrial L          Praca Brasil 1875                       Bela Vista  96610021Rondonopolis   MT                                  171026   000239
10259896740902611934828312309        0000000000000000000000000362475510000072301417101                     102700010778711012700000723014170941111101A210925000020500                                                     0250483284005210AgroSupplyAgroBio Empreendimen          Praca dos Anjos 149                     Jardim das P34474362Anapolis       GO                                  100227   000240
10259896740902611934828312309        0000000000000000000000000209731010000010287061101                     102700033018121012600000102870610941111101A300725000020500                                                     0204757455956961AgroServiceVerde Servicos Agri          Alameda 4 de Julho 1726                 Boa Vista   58261485Tres Lagoas    MS                                  200226   000241
10259896740902611934828312309        0000000000000000000000000389240610000051073002101                     102700107987729122600000510730020941111101A170925000020500                                                     0252568791486841SolAgroBio Agroindustrial Ltda          Alameda Martin Luther King 466          Parque Indus17762351Rondonopolis   MT                                  280127   000242
10259896740902611934828312309        0000000000000000000000000690651710000075799913101                     102700163056018072600000757999130941111101A060725000020500                                                     0222142099635136GraoAgroTrans Producao Agricol          Praca das Palmeiras 1499                Parque Indus37790834Foz do Iguacu  PR                                  170826   000243
10259896740902611934828312309        0000000000000000000000000263150710000027576362101                     102700125721429072600000275763620941111101A200925000020500                                                     0100020102514836Daniel Freitas                          Travessa Independencia 1237             Jardim das P94220634Santos         SP                                  280826   000244
10259896740902611934828312309        0000000000000000000000000291504010000082412262101                     102700040537311112500000824122620941111101A190725000020500                                                     0288971885548905AgroGrowthAgroLog Servicos Agr          Travessa Ipiranga 1914                  Vila Nova   75405163Cuiaba         MT                                  111225   000245
10259896740902611934828312309        0000000000000000000000000639340710000033037948101                     102700061032724072600000330379480941111101A220925000020500                                                     0205991491033875AgroAgroSmart Agroindustrial L          Praca Independencia 15                  Vila Nova   64832037Ribeirao Preto SP                                  230826   000246
10259896740902611934828312309        0000000000000000000000000461166710000056445442101                     102700159978928102500000564454420941111101A100825000020500                                                     0286459072041665AgroInovaAgroService Solucoes           Praca das Flores 268                    Vila Nova   51552536Canoas         RS                                  271125   000247
10259896740902611934828312309        0000000000000000000000000871511010000009534041101                     102700130805310102500000095340410941111101A250725000020500                                                     0264516544704802AgroNorteRural Cultivo e Comer          Avenida Independencia 1107              Boa Vista   94626195Tres Lagoas    MS                                  091125   000248
